{
  "contractName": "Work",
  "abi": [
    {
      "constant": true,
      "inputs": [
        {
          "name": "",
          "type": "uint256"
        }
      ],
      "name": "workContract",
      "outputs": [
        {
          "name": "employerAddress",
          "type": "address"
        },
        {
          "name": "workerAddress",
          "type": "address"
        },
        {
          "name": "startDate",
          "type": "string"
        },
        {
          "name": "workContent",
          "type": "string"
        },
        {
          "name": "startTime",
          "type": "string"
        },
        {
          "name": "endTime",
          "type": "string"
        },
        {
          "name": "salary",
          "type": "uint256"
        },
        {
          "name": "workingDays",
          "type": "uint8"
        },
        {
          "name": "salaryDay",
          "type": "uint8"
        },
        {
          "name": "status",
          "type": "uint8"
        }
      ],
      "payable": false,
      "stateMutability": "view",
      "type": "function"
    },
    {
      "constant": true,
      "inputs": [],
      "name": "latestIndex",
      "outputs": [
        {
          "name": "",
          "type": "uint256"
        }
      ],
      "payable": false,
      "stateMutability": "view",
      "type": "function"
    },
    {
      "constant": true,
      "inputs": [],
      "name": "owner",
      "outputs": [
        {
          "name": "",
          "type": "address"
        }
      ],
      "payable": false,
      "stateMutability": "view",
      "type": "function"
    },
    {
      "inputs": [],
      "payable": false,
      "stateMutability": "nonpayable",
      "type": "constructor"
    },
    {
      "constant": false,
      "inputs": [
        {
          "name": "_id",
          "type": "uint256"
        },
        {
          "name": "_startDate",
          "type": "string"
        },
        {
          "name": "_workContent",
          "type": "string"
        },
        {
          "name": "_startTime",
          "type": "string"
        },
        {
          "name": "_endTime",
          "type": "string"
        },
        {
          "name": "_workingDays",
          "type": "uint8"
        },
        {
          "name": "_salary",
          "type": "uint24"
        },
        {
          "name": "_salaryDay",
          "type": "uint8"
        }
      ],
      "name": "initWorkContract",
      "outputs": [
        {
          "name": "",
          "type": "bool"
        }
      ],
      "payable": false,
      "stateMutability": "nonpayable",
      "type": "function"
    },
    {
      "constant": false,
      "inputs": [
        {
          "name": "_id",
          "type": "uint256"
        }
      ],
      "name": "completeWorkContract",
      "outputs": [
        {
          "name": "",
          "type": "bool"
        }
      ],
      "payable": false,
      "stateMutability": "nonpayable",
      "type": "function"
    },
    {
      "constant": false,
      "inputs": [
        {
          "name": "_id",
          "type": "uint8"
        }
      ],
      "name": "cancelContract",
      "outputs": [
        {
          "name": "",
          "type": "bool"
        }
      ],
      "payable": false,
      "stateMutability": "nonpayable",
      "type": "function"
    },
    {
      "constant": true,
      "inputs": [
        {
          "name": "_id",
          "type": "uint256"
        }
      ],
      "name": "getWorkContractInfo",
      "outputs": [
        {
          "name": "startDate",
          "type": "string"
        },
        {
          "name": "workContent",
          "type": "string"
        },
        {
          "name": "startTime",
          "type": "string"
        },
        {
          "name": "endTime",
          "type": "string"
        },
        {
          "name": "workingDays",
          "type": "uint8"
        },
        {
          "name": "salary",
          "type": "uint256"
        },
        {
          "name": "salaryDay",
          "type": "uint8"
        }
      ],
      "payable": false,
      "stateMutability": "view",
      "type": "function"
    },
    {
      "constant": true,
      "inputs": [
        {
          "name": "_id",
          "type": "uint256"
        }
      ],
      "name": "getEmployerAddress",
      "outputs": [
        {
          "name": "",
          "type": "address"
        }
      ],
      "payable": false,
      "stateMutability": "view",
      "type": "function"
    },
    {
      "constant": true,
      "inputs": [
        {
          "name": "_id",
          "type": "uint256"
        }
      ],
      "name": "getWorkerAddress",
      "outputs": [
        {
          "name": "",
          "type": "address"
        }
      ],
      "payable": false,
      "stateMutability": "view",
      "type": "function"
    },
    {
      "constant": true,
      "inputs": [
        {
          "name": "_id",
          "type": "uint256"
        }
      ],
      "name": "getStatus",
      "outputs": [
        {
          "name": "",
          "type": "uint8"
        }
      ],
      "payable": false,
      "stateMutability": "view",
      "type": "function"
    },
    {
      "constant": true,
      "inputs": [
        {
          "name": "_id",
          "type": "uint256"
        }
      ],
      "name": "checkWorkerContract",
      "outputs": [
        {
          "name": "",
          "type": "bool"
        }
      ],
      "payable": false,
      "stateMutability": "view",
      "type": "function"
    },
    {
      "constant": true,
      "inputs": [
        {
          "name": "_id",
          "type": "uint256"
        }
      ],
      "name": "isMyHalfContract",
      "outputs": [
        {
          "name": "",
          "type": "bool"
        }
      ],
      "payable": false,
      "stateMutability": "view",
      "type": "function"
    },
    {
      "constant": true,
      "inputs": [
        {
          "name": "_id",
          "type": "uint256"
        }
      ],
      "name": "isMyFullContract",
      "outputs": [
        {
          "name": "",
          "type": "bool"
        }
      ],
      "payable": false,
      "stateMutability": "view",
      "type": "function"
    },
    {
      "constant": true,
      "inputs": [],
      "name": "getLatestIndex",
      "outputs": [
        {
          "name": "",
          "type": "uint256"
        }
      ],
      "payable": false,
      "stateMutability": "view",
      "type": "function"
    },
    {
      "constant": true,
      "inputs": [],
      "name": "getBalance",
      "outputs": [
        {
          "name": "",
          "type": "uint256"
        }
      ],
      "payable": false,
      "stateMutability": "view",
      "type": "function"
    }
  ],
  "bytecode": "0x6080604052600060015534801561001557600080fd5b50336000806101000a81548173ffffffffffffffffffffffffffffffffffffffff021916908373ffffffffffffffffffffffffffffffffffffffff160217905550612091806100656000396000f3006080604052600436106100db576000357c0100000000000000000000000000000000000000000000000000000000900463ffffffff16806312065fe0146100e057806332e878141461010b57806334f319c4146101505780633f057d21146101955780633f5fe6a114610413578063578f2aa0146104585780635c622a0e146104835780637c295570146104ca5780638da5cb5b146106d5578063900b7b621461072c578063a971c73914610799578063aefb2609146107c4578063c7cb973214610809578063ee2fac3914610876578063ef85f8f0146108be575b600080fd5b3480156100ec57600080fd5b506100f5610a44565b6040518082815260200191505060405180910390f35b34801561011757600080fd5b5061013660048036038101908080359060200190929190505050610a63565b604051808215151515815260200191505060405180910390f35b34801561015c57600080fd5b5061017b60048036038101908080359060200190929190505050610b69565b604051808215151515815260200191505060405180910390f35b3480156101a157600080fd5b506101c060048036038101908080359060200190929190505050610fb6565b604051808b73ffffffffffffffffffffffffffffffffffffffff1673ffffffffffffffffffffffffffffffffffffffff1681526020018a73ffffffffffffffffffffffffffffffffffffffff1673ffffffffffffffffffffffffffffffffffffffff168152602001806020018060200180602001806020018981526020018860ff1660ff1681526020018760ff1660ff1681526020018660ff1660ff16815260200185810385528d818151815260200191508051906020019080838360005b8381101561029a57808201518184015260208101905061027f565b50505050905090810190601f1680156102c75780820380516001836020036101000a031916815260200191505b5085810384528c818151815260200191508051906020019080838360005b838110156103005780820151818401526020810190506102e5565b50505050905090810190601f16801561032d5780820380516001836020036101000a031916815260200191505b5085810383528b818151815260200191508051906020019080838360005b8381101561036657808201518184015260208101905061034b565b50505050905090810190601f1680156103935780820380516001836020036101000a031916815260200191505b5085810382528a818151815260200191508051906020019080838360005b838110156103cc5780820151818401526020810190506103b1565b50505050905090810190601f1680156103f95780820380516001836020036101000a031916815260200191505b509e50505050505050505050505050505060405180910390f35b34801561041f57600080fd5b5061043e600480360381019080803590602001909291905050506112d1565b604051808215151515815260200191505060405180910390f35b34801561046457600080fd5b5061046d611367565b6040518082815260200191505060405180910390f35b34801561048f57600080fd5b506104ae6004803603810190808035906020019092919050505061136d565b604051808260ff1660ff16815260200191505060405180910390f35b3480156104d657600080fd5b506104f56004803603810190808035906020019092919050505061139a565b60405180806020018060200180602001806020018860ff1660ff1681526020018781526020018660ff1660ff16815260200185810385528c818151815260200191508051906020019080838360005b8381101561055f578082015181840152602081019050610544565b50505050905090810190601f16801561058c5780820380516001836020036101000a031916815260200191505b5085810384528b818151815260200191508051906020019080838360005b838110156105c55780820151818401526020810190506105aa565b50505050905090810190601f1680156105f25780820380516001836020036101000a031916815260200191505b5085810383528a818151815260200191508051906020019080838360005b8381101561062b578082015181840152602081019050610610565b50505050905090810190601f1680156106585780820380516001836020036101000a031916815260200191505b50858103825289818151815260200191508051906020019080838360005b83811015610691578082015181840152602081019050610676565b50505050905090810190601f1680156106be5780820380516001836020036101000a031916815260200191505b509b50505050505050505050505060405180910390f35b3480156106e157600080fd5b506106ea6116e5565b604051808273ffffffffffffffffffffffffffffffffffffffff1673ffffffffffffffffffffffffffffffffffffffff16815260200191505060405180910390f35b34801561073857600080fd5b506107576004803603810190808035906020019092919050505061170a565b604051808273ffffffffffffffffffffffffffffffffffffffff1673ffffffffffffffffffffffffffffffffffffffff16815260200191505060405180910390f35b3480156107a557600080fd5b506107ae61174a565b6040518082815260200191505060405180910390f35b3480156107d057600080fd5b506107ef60048036038101908080359060200190929190505050611754565b604051808215151515815260200191505060405180910390f35b34801561081557600080fd5b5061083460048036038101908080359060200190929190505050611ba1565b604051808273ffffffffffffffffffffffffffffffffffffffff1673ffffffffffffffffffffffffffffffffffffffff16815260200191505060405180910390f35b34801561088257600080fd5b506108a4600480360381019080803560ff169060200190929190505050611be1565b604051808215151515815260200191505060405180910390f35b3480156108ca57600080fd5b50610a2a60048036038101908080359060200190929190803590602001908201803590602001908080601f0160208091040260200160405190810160405280939291908181526020018383808284378201915050505050509192919290803590602001908201803590602001908080601f0160208091040260200160405190810160405280939291908181526020018383808284378201915050505050509192919290803590602001908201803590602001908080601f0160208091040260200160405190810160405280939291908181526020018383808284378201915050505050509192919290803590602001908201803590602001908080601f0160208091040260200160405190810160405280939291908181526020018383808284378201915050505050509192919290803560ff169060200190929190803562ffffff169060200190929190803560ff169060200190929190505050611db9565b604051808215151515815260200191505060405180910390f35b60003373ffffffffffffffffffffffffffffffffffffffff1631905090565b6000803373ffffffffffffffffffffffffffffffffffffffff166002600085815260200190815260200160002060000160009054906101000a900473ffffffffffffffffffffffffffffffffffffffff1673ffffffffffffffffffffffffffffffffffffffff1614151515610ad757600080fd5b600260008481526020019081526020016000209050338160010160006101000a81548173ffffffffffffffffffffffffffffffffffffffff021916908373ffffffffffffffffffffffffffffffffffffffff16021790555060028160070160026101000a81548160ff021916908360ff1602179055506001600081548092919060010191905055506001915050919050565b6000610b73611eef565b6002600084815260200190815260200160002061014060405190810160405290816000820160009054906101000a900473ffffffffffffffffffffffffffffffffffffffff1673ffffffffffffffffffffffffffffffffffffffff1673ffffffffffffffffffffffffffffffffffffffff1681526020016001820160009054906101000a900473ffffffffffffffffffffffffffffffffffffffff1673ffffffffffffffffffffffffffffffffffffffff1673ffffffffffffffffffffffffffffffffffffffff168152602001600282018054600181600116156101000203166002900480601f016020809104026020016040519081016040528092919081815260200182805460018160011615610100020316600290048015610cd85780601f10610cad57610100808354040283529160200191610cd8565b820191906000526020600020905b815481529060010190602001808311610cbb57829003601f168201915b50505050508152602001600382018054600181600116156101000203166002900480601f016020809104026020016040519081016040528092919081815260200182805460018160011615610100020316600290048015610d7a5780601f10610d4f57610100808354040283529160200191610d7a565b820191906000526020600020905b815481529060010190602001808311610d5d57829003601f168201915b50505050508152602001600482018054600181600116156101000203166002900480601f016020809104026020016040519081016040528092919081815260200182805460018160011615610100020316600290048015610e1c5780601f10610df157610100808354040283529160200191610e1c565b820191906000526020600020905b815481529060010190602001808311610dff57829003601f168201915b50505050508152602001600582018054600181600116156101000203166002900480601f016020809104026020016040519081016040528092919081815260200182805460018160011615610100020316600290048015610ebe5780601f10610e9357610100808354040283529160200191610ebe565b820191906000526020600020905b815481529060010190602001808311610ea157829003601f168201915b50505050508152602001600682015481526020016007820160009054906101000a900460ff1660ff1660ff1681526020016007820160019054906101000a900460ff1660ff1660ff1681526020016007820160029054906101000a900460ff1660ff1660ff168152505090503373ffffffffffffffffffffffffffffffffffffffff16816000015173ffffffffffffffffffffffffffffffffffffffff161480610f9757503373ffffffffffffffffffffffffffffffffffffffff16816020015173ffffffffffffffffffffffffffffffffffffffff16145b8015610fae57506002610fa98461136d565b60ff16145b915050919050565b60026020528060005260406000206000915090508060000160009054906101000a900473ffffffffffffffffffffffffffffffffffffffff16908060010160009054906101000a900473ffffffffffffffffffffffffffffffffffffffff1690806002018054600181600116156101000203166002900480601f0160208091040260200160405190810160405280929190818152602001828054600181600116156101000203166002900480156110ae5780601f10611083576101008083540402835291602001916110ae565b820191906000526020600020905b81548152906001019060200180831161109157829003601f168201915b505050505090806003018054600181600116156101000203166002900480601f01602080910402602001604051908101604052809291908181526020018280546001816001161561010002031660029004801561114c5780601f106111215761010080835404028352916020019161114c565b820191906000526020600020905b81548152906001019060200180831161112f57829003601f168201915b505050505090806004018054600181600116156101000203166002900480601f0160208091040260200160405190810160405280929190818152602001828054600181600116156101000203166002900480156111ea5780601f106111bf576101008083540402835291602001916111ea565b820191906000526020600020905b8154815290600101906020018083116111cd57829003601f168201915b505050505090806005018054600181600116156101000203166002900480601f0160208091040260200160405190810160405280929190818152602001828054600181600116156101000203166002900480156112885780601f1061125d57610100808354040283529160200191611288565b820191906000526020600020905b81548152906001019060200180831161126b57829003601f168201915b5050505050908060060154908060070160009054906101000a900460ff16908060070160019054906101000a900460ff16908060070160029054906101000a900460ff1690508a565b600060016112de8361136d565b60ff1614801561134f57503373ffffffffffffffffffffffffffffffffffffffff166002600084815260200190815260200160002060010160009054906101000a900473ffffffffffffffffffffffffffffffffffffffff1673ffffffffffffffffffffffffffffffffffffffff16145b1561135d5760019050611362565b600090505b919050565b60015481565b60006002600083815260200190815260200160002060070160029054906101000a900460ff169050919050565b606080606080600080600060026000898152602001908152602001600020600201600260008a8152602001908152602001600020600301600260008b8152602001908152602001600020600401600260008c8152602001908152602001600020600501600260008d815260200190815260200160002060070160009054906101000a900460ff16600260008e815260200190815260200160002060060154600260008f815260200190815260200160002060070160019054906101000a900460ff16868054600181600116156101000203166002900480601f0160208091040260200160405190810160405280929190818152602001828054600181600116156101000203166002900480156114f15780601f106114c6576101008083540402835291602001916114f1565b820191906000526020600020905b8154815290600101906020018083116114d457829003601f168201915b50505050509650858054600181600116156101000203166002900480601f01602080910402602001604051908101604052809291908181526020018280546001816001161561010002031660029004801561158d5780601f106115625761010080835404028352916020019161158d565b820191906000526020600020905b81548152906001019060200180831161157057829003601f168201915b50505050509550848054600181600116156101000203166002900480601f0160208091040260200160405190810160405280929190818152602001828054600181600116156101000203166002900480156116295780601f106115fe57610100808354040283529160200191611629565b820191906000526020600020905b81548152906001019060200180831161160c57829003601f168201915b50505050509450838054600181600116156101000203166002900480601f0160208091040260200160405190810160405280929190818152602001828054600181600116156101000203166002900480156116c55780601f1061169a576101008083540402835291602001916116c5565b820191906000526020600020905b8154815290600101906020018083116116a857829003601f168201915b505050505093509650965096509650965096509650919395979092949650565b6000809054906101000a900473ffffffffffffffffffffffffffffffffffffffff1681565b60006002600083815260200190815260200160002060010160009054906101000a900473ffffffffffffffffffffffffffffffffffffffff169050919050565b6000600154905090565b600061175e611eef565b6002600084815260200190815260200160002061014060405190810160405290816000820160009054906101000a900473ffffffffffffffffffffffffffffffffffffffff1673ffffffffffffffffffffffffffffffffffffffff1673ffffffffffffffffffffffffffffffffffffffff1681526020016001820160009054906101000a900473ffffffffffffffffffffffffffffffffffffffff1673ffffffffffffffffffffffffffffffffffffffff1673ffffffffffffffffffffffffffffffffffffffff168152602001600282018054600181600116156101000203166002900480601f0160208091040260200160405190810160405280929190818152602001828054600181600116156101000203166002900480156118c35780601f10611898576101008083540402835291602001916118c3565b820191906000526020600020905b8154815290600101906020018083116118a657829003601f168201915b50505050508152602001600382018054600181600116156101000203166002900480601f0160208091040260200160405190810160405280929190818152602001828054600181600116156101000203166002900480156119655780601f1061193a57610100808354040283529160200191611965565b820191906000526020600020905b81548152906001019060200180831161194857829003601f168201915b50505050508152602001600482018054600181600116156101000203166002900480601f016020809104026020016040519081016040528092919081815260200182805460018160011615610100020316600290048015611a075780601f106119dc57610100808354040283529160200191611a07565b820191906000526020600020905b8154815290600101906020018083116119ea57829003601f168201915b50505050508152602001600582018054600181600116156101000203166002900480601f016020809104026020016040519081016040528092919081815260200182805460018160011615610100020316600290048015611aa95780601f10611a7e57610100808354040283529160200191611aa9565b820191906000526020600020905b815481529060010190602001808311611a8c57829003601f168201915b50505050508152602001600682015481526020016007820160009054906101000a900460ff1660ff1660ff1681526020016007820160019054906101000a900460ff1660ff1660ff1681526020016007820160029054906101000a900460ff1660ff1660ff168152505090503373ffffffffffffffffffffffffffffffffffffffff16816000015173ffffffffffffffffffffffffffffffffffffffff161480611b8257503373ffffffffffffffffffffffffffffffffffffffff16816020015173ffffffffffffffffffffffffffffffffffffffff16145b8015611b9957506001611b948461136d565b60ff16145b915050919050565b60006002600083815260200190815260200160002060000160009054906101000a900473ffffffffffffffffffffffffffffffffffffffff169050919050565b60003373ffffffffffffffffffffffffffffffffffffffff16600260008460ff16815260200190815260200160002060010160009054906101000a900473ffffffffffffffffffffffffffffffffffffffff1673ffffffffffffffffffffffffffffffffffffffff161480611cba57503373ffffffffffffffffffffffffffffffffffffffff16600260008460ff16815260200190815260200160002060000160009054906101000a900473ffffffffffffffffffffffffffffffffffffffff1673ffffffffffffffffffffffffffffffffffffffff16145b1515611cc557600080fd5b600260008360ff168152602001908152602001600020600080820160006101000a81549073ffffffffffffffffffffffffffffffffffffffff02191690556001820160006101000a81549073ffffffffffffffffffffffffffffffffffffffff0219169055600282016000611d3a9190611f78565b600382016000611d4a9190611f78565b600482016000611d5a9190611f78565b600582016000611d6a9190611f78565b60068201600090556007820160006101000a81549060ff02191690556007820160016101000a81549060ff02191690556007820160026101000a81549060ff0219169055505060019050919050565b600080600260008b81526020019081526020016000209050338160000160006101000a81548173ffffffffffffffffffffffffffffffffffffffff021916908373ffffffffffffffffffffffffffffffffffffffff16021790555088816002019080519060200190611e2c929190611fc0565b5087816003019080519060200190611e45929190611fc0565b5086816004019080519060200190611e5e929190611fc0565b5085816005019080519060200190611e77929190611fc0565b50848160070160006101000a81548160ff021916908360ff1602179055508362ffffff168160060181905550828160070160016101000a81548160ff021916908360ff16021790555060018160070160026101000a81548160ff021916908360ff160217905550600191505098975050505050505050565b61014060405190810160405280600073ffffffffffffffffffffffffffffffffffffffff168152602001600073ffffffffffffffffffffffffffffffffffffffff1681526020016060815260200160608152602001606081526020016060815260200160008152602001600060ff168152602001600060ff168152602001600060ff1681525090565b50805460018160011615610100020316600290046000825580601f10611f9e5750611fbd565b601f016020900490600052602060002090810190611fbc9190612040565b5b50565b828054600181600116156101000203166002900490600052602060002090601f016020900481019282601f1061200157805160ff191683800117855561202f565b8280016001018555821561202f579182015b8281111561202e578251825591602001919060010190612013565b5b50905061203c9190612040565b5090565b61206291905b8082111561205e576000816000905550600101612046565b5090565b905600a165627a7a723058201a742b656a078d7ba7105fd422000586f56deb499cda87f4af0a8d406393f9b90029",
  "source": "// SPDX-License-Identifier: MIT\r\npragma solidity >= 0.4.24 <= 0.5.6;\r\n\r\n/// @title 근로계약서 스마트 컨트랙트\r\ncontract Work {\r\n    \r\n    address public owner;                   // 컨트랙트 배포한 사람 주소 <<- 운영자\r\n    uint public latestIndex = 0;           // 체결된 전체 근로계약서 개수(길이)\r\n    \r\n    struct WorkContract { // @dev 표준 근로계약서 기반 순서로 타입 선언(중구난방 주의)\r\n        \r\n        address employerAddress;            // 고용주의 주소 << 고용주가 쓰는 함수 실행할때 msg.sender로 저장.\r\n        address workerAddress;              // 근로자의 주소 << 근로자가 쓰는 함수 실행할때 msg.sender로 저장.\r\n        \r\n        string startDate;                   // 계약기간(시작) << 고용주 입력값, (끝)은 없는 상태로 시작.\r\n        string workContent;                 // 업무 내용  << 고용주 입력값\r\n\r\n        string startTime;                     // 근로시간(시작)   << 고용주 입력값\r\n        string endTime;                       // 근로시간(끝)     << 고용주 입력값\r\n        \r\n        uint salary;                      // 시급             << 고용주 입력값\r\n        uint8 workingDays;                  // 주 N일 근무      << 고용주 입력값 순서는 일부로 바꿈(salary <=> )\r\n        uint8 salaryDay;                    // 월급날\r\n        \r\n        //string empSign;                    // 고용주 싸인\r\n        //string workSign;                    // 근로자 싸인\r\n        \r\n        uint8 status;                       // 상태표시 - 0 - 계약없는상태 - 1 - 고용자가작성함 - 2 - 근로자가 서명함.\r\n    }\r\n    \r\n    mapping (uint => WorkContract) public workContract;\r\n\r\n    constructor() public { // 배포할때 딱 한번 실행, 배포한 사람의 주소가 이 스마트 컨트랙트의 owner로 지정.\r\n        owner = msg.sender; \r\n    }\r\n    \r\n    // event SucceedWorkContract(address _empAddr,address _worAddr); // 이벤트, 나중에 함수 내에 인자값 받아넣고 console.log용으로 사용예정.\r\n    \r\n    // 고용주가 근로계약서를 생성하는 부분 \r\n    function initWorkContract(uint _id,\r\n        // address _workerAddress,\r\n        string memory _startDate,         // 계약기간(시작) *근무장소 제외*\r\n        string memory _workContent,    // 업무 내용\r\n        string memory _startTime,         // 근로시간(시작)               \r\n        string memory _endTime,           // 근로시간(끝)\r\n        uint8 _workingDays,      // 주 N일              \r\n        uint24 _salary,        // 시급(월급)\r\n        uint8 _salaryDay\r\n        ) public returns (bool) {\r\n            WorkContract storage wc = workContract[_id]; // _id의 키값을 가진 빈 계약서에 내용 대입, memory에서 바뀌야 할지도\r\n            \r\n            wc.employerAddress = msg.sender;\r\n            // wc.workerAddress = _workerAddress;\r\n            \r\n            wc.startDate = _startDate;\r\n            wc.workContent = _workContent;\r\n            wc.startTime = _startTime;\r\n            wc.endTime = _endTime;\r\n            wc.workingDays = _workingDays;\r\n            wc.salary = _salary;\r\n            wc.salaryDay = _salaryDay;\r\n            wc.status = 1;\r\n            \r\n            //++latestIndex; // 근로계약서 작성 - 저장시 바로 인덱스를 올려버린다.\r\n            \r\n            return true;\r\n    }\r\n    \r\n    // 고용주로부터 근로계약서 넘겨받았을 때, 마저 기입하고 완료하면서 실행되는 함수.\r\n    function completeWorkContract(\r\n        uint _id\r\n        //string memory _workSign                   // 근로자 성명         \r\n        ) public returns (bool) {\r\n            require(workContract[_id].employerAddress != msg.sender);\r\n            WorkContract storage wc = workContract[_id];\r\n            wc.workerAddress = msg.sender;\r\n            //wc.workSign = _workSign;\r\n            wc.status = 2;\r\n            \r\n            latestIndex++;\r\n            return true;\r\n    }\r\n    \r\n    // 고용주와 근로자가 계약서 보고 취소할 수도 있도록 하는 함수 ( 자기가 잘못 쓸 수도 있으니 )\r\n    function cancelContract(uint8 _id) public returns (bool) {\r\n        require(workContract[_id].workerAddress == msg.sender || workContract[_id].employerAddress == msg.sender );\r\n        delete workContract[_id];\r\n        return true;\r\n    }\r\n\r\n    /// @dev 반환하는데에 스택 공간이 부족해질 수 있음\r\n    function getWorkContractInfo(uint _id) view public\r\n    returns (\r\n        string memory startDate,\r\n        string memory workContent,\r\n        string memory startTime,\r\n        string memory endTime,\r\n        uint8 workingDays,            \r\n        uint salary,  \r\n        uint8 salaryDay\r\n        )  {\r\n        return (\r\n            workContract[_id].startDate,\r\n            workContract[_id].workContent,\r\n            workContract[_id].startTime,\r\n            workContract[_id].endTime,\r\n            workContract[_id].workingDays,\r\n            workContract[_id].salary,\r\n            workContract[_id].salaryDay\r\n            );\r\n    }\r\n    \r\n    function getEmployerAddress(uint _id) view public returns (address) {\r\n        return workContract[_id].employerAddress;\r\n    }\r\n    \r\n    function getWorkerAddress(uint _id) view public returns (address) {\r\n        return workContract[_id].workerAddress;\r\n    }\r\n    \r\n     // 해당 계약서(인덱스)의 상태변수인 status 값을 받아오는 함수\r\n    function getStatus(uint _id) view public returns (uint8) {\r\n        return workContract[_id].status;\r\n    }\r\n    \r\n    // 근로자가 출력하는 계약서들중에서 status값이 1이고(진행중) 그 계약서 대상이 자기 주소인지를 확인하는 함수.\r\n    // 해당사항이면 계약정보를 보여줘야함.\r\n    function checkWorkerContract(uint _id) view public returns (bool) {\r\n        if( getStatus(_id) == 1 && workContract[_id].workerAddress == msg.sender) {\r\n            return true;\r\n        }\r\n        return false;\r\n    }\r\n    \r\n    // 함수 실행한 사람이 본인들인지 체크하는 함수 (프론트단에서 반복문 돌릴때)\r\n    function isMyHalfContract(uint _id) view public returns (bool) { \r\n        WorkContract memory con = workContract[_id];\r\n        return ((con.employerAddress == msg.sender || con.workerAddress == msg.sender) && (getStatus(_id) == 1)); // 여기서 true면 계약정보가 보이게끔.\r\n    }\r\n\r\n    function isMyFullContract(uint _id) view public returns (bool) { \r\n        WorkContract memory con = workContract[_id];\r\n        return ((con.employerAddress == msg.sender || con.workerAddress == msg.sender) && (getStatus(_id) == 2)); // 여기서 true면 계약정보가 보이게끔.\r\n    }\r\n    \r\n    function getLatestIndex() view public returns (uint) { // WorkContract[] 구조체 배열의 길이를 반환\r\n        return latestIndex;\r\n    }\r\n\r\n    function getBalance() public view returns (uint) { // 함수 실행한 계정 주소의 돈을 반환함.\r\n        return address(msg.sender).balance;\r\n    }\r\n}",
  "sourcePath": "C:\\Users\\user\\Desktop\\EmploymentContract\\contracts\\Work.sol",
  "compiler": {
    "name": "solc",
    "version": "0.4.25+commit.59dbf8f1.Emscripten.clang"
  },
  "schemaVersion": "2.0.2",
  "updatedAt": "2021-07-22T21:53:49.627Z"
}